{
  "_format": "hh-sol-artifact-1",
  "contractName": "ArtChain",
  "sourceName": "contracts/ArtChain.sol",
  "abi": [
    {
      "inputs": [],
      "stateMutability": "nonpayable",
      "type": "constructor"
    },
    {
      "anonymous": false,
      "inputs": [
        {
          "indexed": true,
          "internalType": "uint256",
          "name": "artId",
          "type": "uint256"
        },
        {
          "indexed": false,
          "internalType": "uint256",
          "name": "price",
          "type": "uint256"
        }
      ],
      "name": "ArtAdded",
      "type": "event"
    },
    {
      "anonymous": false,
      "inputs": [
        {
          "indexed": true,
          "internalType": "address",
          "name": "buyer",
          "type": "address"
        },
        {
          "indexed": true,
          "internalType": "uint256",
          "name": "artId",
          "type": "uint256"
        },
        {
          "indexed": false,
          "internalType": "uint256",
          "name": "price",
          "type": "uint256"
        }
      ],
      "name": "ArtPurchased",
      "type": "event"
    },
    {
      "anonymous": false,
      "inputs": [
        {
          "indexed": true,
          "internalType": "address",
          "name": "seller",
          "type": "address"
        },
        {
          "indexed": true,
          "internalType": "uint256",
          "name": "artId",
          "type": "uint256"
        }
      ],
      "name": "PurchaseConfirmed",
      "type": "event"
    },
    {
      "inputs": [
        {
          "internalType": "uint256",
          "name": "artId",
          "type": "uint256"
        },
        {
          "internalType": "uint256",
          "name": "price",
          "type": "uint256"
        }
      ],
      "name": "addArt",
      "outputs": [],
      "stateMutability": "nonpayable",
      "type": "function"
    },
    {
      "inputs": [
        {
          "internalType": "uint256",
          "name": "",
          "type": "uint256"
        }
      ],
      "name": "artExists",
      "outputs": [
        {
          "internalType": "bool",
          "name": "",
          "type": "bool"
        }
      ],
      "stateMutability": "view",
      "type": "function"
    },
    {
      "inputs": [
        {
          "internalType": "uint256",
          "name": "",
          "type": "uint256"
        }
      ],
      "name": "artOwners",
      "outputs": [
        {
          "internalType": "address",
          "name": "",
          "type": "address"
        }
      ],
      "stateMutability": "view",
      "type": "function"
    },
    {
      "inputs": [
        {
          "internalType": "uint256",
          "name": "",
          "type": "uint256"
        }
      ],
      "name": "artPrices",
      "outputs": [
        {
          "internalType": "uint256",
          "name": "",
          "type": "uint256"
        }
      ],
      "stateMutability": "view",
      "type": "function"
    },
    {
      "inputs": [
        {
          "internalType": "uint256",
          "name": "",
          "type": "uint256"
        }
      ],
      "name": "buyers",
      "outputs": [
        {
          "internalType": "address",
          "name": "",
          "type": "address"
        }
      ],
      "stateMutability": "view",
      "type": "function"
    },
    {
      "inputs": [
        {
          "internalType": "uint256",
          "name": "artId",
          "type": "uint256"
        }
      ],
      "name": "confirmPurchase",
      "outputs": [],
      "stateMutability": "nonpayable",
      "type": "function"
    },
    {
      "inputs": [
        {
          "internalType": "uint256",
          "name": "",
          "type": "uint256"
        }
      ],
      "name": "isConfirmed",
      "outputs": [
        {
          "internalType": "bool",
          "name": "",
          "type": "bool"
        }
      ],
      "stateMutability": "view",
      "type": "function"
    },
    {
      "inputs": [],
      "name": "owner",
      "outputs": [
        {
          "internalType": "address",
          "name": "",
          "type": "address"
        }
      ],
      "stateMutability": "view",
      "type": "function"
    },
    {
      "inputs": [
        {
          "internalType": "uint256",
          "name": "artId",
          "type": "uint256"
        }
      ],
      "name": "purchaseArt",
      "outputs": [],
      "stateMutability": "payable",
      "type": "function"
    },
    {
      "inputs": [],
      "name": "withdraw",
      "outputs": [],
      "stateMutability": "nonpayable",
      "type": "function"
    }
  ],
  "bytecode": "0x608060405234801561001057600080fd5b50336000806101000a81548173ffffffffffffffffffffffffffffffffffffffff021916908373ffffffffffffffffffffffffffffffffffffffff160217905550610fde806100606000396000f3fe6080604052600436106100915760003560e01c806372eef4aa1161005957806372eef4aa14610158578063784547a7146101955780638da5cb5b146101d2578063cc3f6da0146101fd578063f2aa82181461023a57610091565b80632e80460514610096578063334b49a9146100d35780633ccfd60b146100fc5780634d24e9021461011357806359e91e3c1461013c575b600080fd5b3480156100a257600080fd5b506100bd60048036038101906100b89190610b54565b610277565b6040516100ca9190610b9c565b60405180910390f35b3480156100df57600080fd5b506100fa60048036038101906100f59190610bb7565b610297565b005b34801561010857600080fd5b50610111610406565b005b34801561011f57600080fd5b5061013a60048036038101906101359190610b54565b610503565b005b61015660048036038101906101519190610b54565b6107a1565b005b34801561016457600080fd5b5061017f600480360381019061017a9190610b54565b610a57565b60405161018c9190610c38565b60405180910390f35b3480156101a157600080fd5b506101bc60048036038101906101b79190610b54565b610a8a565b6040516101c99190610b9c565b60405180910390f35b3480156101de57600080fd5b506101e7610aaa565b6040516101f49190610c38565b60405180910390f35b34801561020957600080fd5b50610224600480360381019061021f9190610b54565b610ace565b6040516102319190610c62565b60405180910390f35b34801561024657600080fd5b50610261600480360381019061025c9190610b54565b610ae6565b60405161026e9190610c38565b60405180910390f35b60036020528060005260406000206000915054906101000a900460ff1681565b60008054906101000a900473ffffffffffffffffffffffffffffffffffffffff1673ffffffffffffffffffffffffffffffffffffffff163373ffffffffffffffffffffffffffffffffffffffff1614610325576040517f08c379a000000000000000000000000000000000000000000000000000000000815260040161031c90610d00565b60405180910390fd5b6003600083815260200190815260200160002060009054906101000a900460ff1615610386576040517f08c379a000000000000000000000000000000000000000000000000000000000815260040161037d90610d6c565b60405180910390fd5b60016003600084815260200190815260200160002060006101000a81548160ff021916908315150217905550806002600084815260200190815260200160002081905550817f6566d76d0614321e1d60a17ff1927804303d169b391ad1385176ac779440b4c3826040516103fa9190610c62565b60405180910390a25050565b60008054906101000a900473ffffffffffffffffffffffffffffffffffffffff1673ffffffffffffffffffffffffffffffffffffffff163373ffffffffffffffffffffffffffffffffffffffff1614610494576040517f08c379a000000000000000000000000000000000000000000000000000000000815260040161048b90610d00565b60405180910390fd5b600047905060008054906101000a900473ffffffffffffffffffffffffffffffffffffffff1673ffffffffffffffffffffffffffffffffffffffff166108fc829081150290604051600060405180830381858888f193505050501580156104ff573d6000803e3d6000fd5b5050565b60008054906101000a900473ffffffffffffffffffffffffffffffffffffffff1673ffffffffffffffffffffffffffffffffffffffff163373ffffffffffffffffffffffffffffffffffffffff1614610591576040517f08c379a000000000000000000000000000000000000000000000000000000000815260040161058890610d00565b60405180910390fd5b600073ffffffffffffffffffffffffffffffffffffffff166005600083815260200190815260200160002060009054906101000a900473ffffffffffffffffffffffffffffffffffffffff1673ffffffffffffffffffffffffffffffffffffffff1603610633576040517f08c379a000000000000000000000000000000000000000000000000000000000815260040161062a90610dd8565b60405180910390fd5b6004600082815260200190815260200160002060009054906101000a900460ff1615610694576040517f08c379a000000000000000000000000000000000000000000000000000000000815260040161068b90610e44565b60405180910390fd5b60016004600083815260200190815260200160002060006101000a81548160ff02191690831515021790555060008054906101000a900473ffffffffffffffffffffffffffffffffffffffff1673ffffffffffffffffffffffffffffffffffffffff166108fc60026000848152602001908152602001600020549081150290604051600060405180830381858888f19350505050158015610739573d6000803e3d6000fd5b508060008054906101000a900473ffffffffffffffffffffffffffffffffffffffff1673ffffffffffffffffffffffffffffffffffffffff167fa29484a0d47153a96f00a1369c6885bbc89e95e35273ee97c943c440f7c4c28260405160405180910390a350565b806003600082815260200190815260200160002060009054906101000a900460ff16610802576040517f08c379a00000000000000000000000000000000000000000000000000000000081526004016107f990610eb0565b60405180910390fd5b600073ffffffffffffffffffffffffffffffffffffffff166001600083815260200190815260200160002060009054906101000a900473ffffffffffffffffffffffffffffffffffffffff1673ffffffffffffffffffffffffffffffffffffffff16146108a4576040517f08c379a000000000000000000000000000000000000000000000000000000000815260040161089b90610f1c565b60405180910390fd5b6000600260008481526020019081526020016000205490508034146108fe576040517f08c379a00000000000000000000000000000000000000000000000000000000081526004016108f590610f88565b60405180910390fd5b6004600084815260200190815260200160002060009054906101000a900460ff161561095f576040517f08c379a000000000000000000000000000000000000000000000000000000000815260040161095690610e44565b60405180910390fd5b336001600085815260200190815260200160002060006101000a81548173ffffffffffffffffffffffffffffffffffffffff021916908373ffffffffffffffffffffffffffffffffffffffff160217905550336005600085815260200190815260200160002060006101000a81548173ffffffffffffffffffffffffffffffffffffffff021916908373ffffffffffffffffffffffffffffffffffffffff160217905550823373ffffffffffffffffffffffffffffffffffffffff167fe9eb9987417efb172f3a419d7199599450643d60f3155c0194c0f37c33b7d49d83604051610a4a9190610c62565b60405180910390a3505050565b60016020528060005260406000206000915054906101000a900473ffffffffffffffffffffffffffffffffffffffff1681565b60046020528060005260406000206000915054906101000a900460ff1681565b60008054906101000a900473ffffffffffffffffffffffffffffffffffffffff1681565b60026020528060005260406000206000915090505481565b60056020528060005260406000206000915054906101000a900473ffffffffffffffffffffffffffffffffffffffff1681565b600080fd5b6000819050919050565b610b3181610b1e565b8114610b3c57600080fd5b50565b600081359050610b4e81610b28565b92915050565b600060208284031215610b6a57610b69610b19565b5b6000610b7884828501610b3f565b91505092915050565b60008115159050919050565b610b9681610b81565b82525050565b6000602082019050610bb16000830184610b8d565b92915050565b60008060408385031215610bce57610bcd610b19565b5b6000610bdc85828601610b3f565b9250506020610bed85828601610b3f565b9150509250929050565b600073ffffffffffffffffffffffffffffffffffffffff82169050919050565b6000610c2282610bf7565b9050919050565b610c3281610c17565b82525050565b6000602082019050610c4d6000830184610c29565b92915050565b610c5c81610b1e565b82525050565b6000602082019050610c776000830184610c53565b92915050565b600082825260208201905092915050565b7f4f6e6c7920746865206f776e65722063616e20706572666f726d20746869732060008201527f616374696f6e0000000000000000000000000000000000000000000000000000602082015250565b6000610cea602683610c7d565b9150610cf582610c8e565b604082019050919050565b60006020820190508181036000830152610d1981610cdd565b9050919050565b7f41727420616c7265616479206578697374730000000000000000000000000000600082015250565b6000610d56601283610c7d565b9150610d6182610d20565b602082019050919050565b60006020820190508181036000830152610d8581610d49565b9050919050565b7f4e6f20627579657220666f722074686973206172742070696563650000000000600082015250565b6000610dc2601b83610c7d565b9150610dcd82610d8c565b602082019050919050565b60006020820190508181036000830152610df181610db5565b9050919050565b7f5472616e73616374696f6e20616c726561647920636f6e6669726d6564000000600082015250565b6000610e2e601d83610c7d565b9150610e3982610df8565b602082019050919050565b60006020820190508181036000830152610e5d81610e21565b9050919050565b7f41727420646f6573206e6f742065786973740000000000000000000000000000600082015250565b6000610e9a601283610c7d565b9150610ea582610e64565b602082019050919050565b60006020820190508181036000830152610ec981610e8d565b9050919050565b7f41727420697320616c726561647920736f6c6400000000000000000000000000600082015250565b6000610f06601383610c7d565b9150610f1182610ed0565b602082019050919050565b60006020820190508181036000830152610f3581610ef9565b9050919050565b7f496e636f72726563742076616c75652073656e74000000000000000000000000600082015250565b6000610f72601483610c7d565b9150610f7d82610f3c565b602082019050919050565b60006020820190508181036000830152610fa181610f65565b905091905056fea2646970667358221220ca90f3015c18c1f6d15654b8904b6c35b7dfc788e1363e42ba79ba40725f8bf564736f6c63430008180033",
  "linkReferences": {},
  "deployedLinkReferences": {}
}